:100000000040002085040000C5040000C704000073
:1000100000000000000000000000000000000000E0
:10002000000000000000000000000000C904000003
:100030000000000000000000CB040000CD04000020
:1000400079060000B9250000CF040000CF040000AD
:10005000CF04000000000000CF040000CF04000027
:100060006D350000CF040000CF040000C907000078
:10007000CF040000CF040000CF040000CF04000034
:10008000CF040000CF040000CF040000CF04000024
:10009000CF04000021290000CF040000CF0400009D
:1000A000CF040000CF0400000000000000000000AA
:1000B0000000000000000000000000000000000040
:1000C00010B5064C2378002B07D1054B002B02D02E
:1000D000044800E000BF0123237010BD8800002009
:1000E000000000008037000008B5084B002B03D04B
:1000F0000748084900E000BF07480368002B00D10B
:1001000008BD064B002BFBD09847F9E70000000024
:10011000803700008C0000208400002000000000D8
:10012000164B002B00D1144B9D46402292029A1A86
:10013000924600218B460F461348144A121A00F0CB
:1001400067F80F4B002B00D098470E4B002B00D0C8
:1001500098470020002104000D000D48002802D01F
:100160000C4800E000BF00F02DF82000290000F04E
:10017000D5F800F011F8C04600000800004000204B
:10018000000000000000000088000020A8040020FB
:100190000000000000000000084B10B5041C002BFC
:1001A00002D0002100E000BF054B1868836A002BD5
:1001B00000D09847201C00F033F8C0460000000033
:1001C0003C3700000E4B70B500251E1C0D4CE41A88
:1001D000A410A54204D0AB00F35898470135F8E7C6
:1001E00003F09EFA084B00251E1C084CE41AA410CC
:1001F000A54204D0AB00F35898470135F8E770BD2D
:100200007C0000207C0000207C000020800000207A
:10021000031C8218934202D019700133FAE7704729
:10022000FEE7C046F8B5A022A223D205DB00D358D2
:100230000124DB43354AD8B21360DA0D2240111C89
:1002400004229E0F024026400A43760032435E0994
:100250002640F6003243111C9A09224012010A433B
:100260005E0F590826402140890076000E43990D03
:10027000214031431E092640F6003143DE09264065
:10028000234D360131436970590D21400E1C211C4C
:10029000014089003143082630400143180F2040B7
:1002A00040000143180A204000010143A970990C45
:1002B0002140DB0C490023400B432A70EB70002ADD
:1002C00016D16B78002B13D1AB78002B10D1EF78BF
:1002D000002F0DD10F4EF5323368FF3201333360FA
:1002E000934209D8291C0422012000F008FBF8BD24
:1002F0000022084B1A60F5E7074800F047FAA023F0
:100300008022DB00D2053760D450EBE7A400002048
:10031000A8000020AC00002048370000A023E32103
:10032000254ADB05C90010B55A50244982B05A50FD
:100330000C395A5070315A5021495A5021495A505B
:100340000C395A5020495A5020495A501C395A5099
:1003500038395A501E495A500C395A5070315A5037
:100360001C495A500C395A501B495A5000F026F972
:10037000002000F043F919490622684603F0C6F947
:1003800020236A46164C13806946164A201C00F04A
:10039000C3F90121201C00F005FA201C00F0EAF945
:1003A000002000F0B1FD642000F056FD00F084FA5A
:1003B00040BF20BF20BFFBE70C0003001407000074
:1003C0005C0700001C070000040700007407000021
:1003D0000C070000540700004C07000040370000E5
:1003E000483700002502000082B002B07047C046C6
:1003F0007047C04682B002B07047C04682B002B0BB
:100400007047C046F0B5002820DBFF271B4B0322B6
:100410009C463B1C8408C026C0B20240D2009340D8
:10042000A4006444B600A5599D438B013B40934012
:10043000191C2943A1511F2318401E3B8340C02291
:10044000181C0E4B520098501860F0BDFF260C4A45
:1004500003249446321C0F23C0B20440E400A2409F
:100460000340083B9B089B006344DD6995438A0178
:100470003240A240111C2943D961DCE700E100E0D1
:1004800000ED00E003210A4802680A4302600948BF
:1004900002680A4302600849084A094B9B1A03DDB7
:1004A000043BC858D050FBDC00F012F8FFF738FED0
:1004B00024050040540500408C3700000000002057
:1004C00088000020FEE7FEE7FEE7FEE7FEE7FEE726
:1004D000304B1B78012B00D070472F4B1B681B073C
:1004E000FAD1F0222D4B1B68134027D12C4B1B68EF
:1004F000134229D0284B1B681B07EDD1F022274B54
:100500001B681340402B32D0244B1A68F023134051
:10051000A02B01D0D02BDFD1214B1A68F0231A4237
:10052000DAD1204A1368012B04D01F4B13601368E3
:10053000012BFCD1C0221D4B1A60CDE7102B0FD12F
:10054000174B1B681342D9D1194A1A4B1A608022E3
:10055000194B12021A600F4B1B78012BCAD0BBE754
:10056000302BCBD10E4B1B681342C7D1ECE70C4BA1
:100570001B681342C8D1C12380220121DB00D205B0
:10058000D150044B1B78012BA6D1034B1B681B07D2
:10059000BAD0A1E7E00F00F0E40F00F0E80F00F0A0
:1005A000EC0F00F000EC06407593000014EC0640E0
:1005B000DFFF07C004050040186C004010B50D4C6B
:1005C00085202378002B00D010BD6360A3602361D9
:1005D000E360094B1B68DB0703D400200321FFF70E
:1005E00011FFA32280210123D200C9058B500020D6
:1005F0002370E9E7B000002000E100E038B51B4DB2
:10060000041CAB78002B0ED0002802D043680120D8
:100610009847002000F06EF8EB6800200133EB6093
:1006200000F070F838BD002000F064F8002C0DD008
:100630002A69002A08D0944208D0131C01E09C4289
:1006400004D01B68002BFAD122602C61EB68002BD0
:10065000E2D1074A02211360C123053A9B00FF3A09
:10066000D1500122034B1A60D6E7C046B0000020EB
:10067000040100400800004010B51B4B1A68002A16
:100680001BD11A4B1A68002A00D110BD00221A6033
:10069000C223802202219B00D205D1500123144C99
:1006A000A3702369002BF0D01A68012022615B68D7
:1006B00098472369002BF7D1E7E7002280211A60D1
:1006C000C22201230A4C9200C9058B506370A368B3
:1006D000002BD6D01A680020A2605B689847A368F8
:1006E000002BF7D1CDE7C0460001004004010040D7
:1006F000B000002072B6024A1368013313607047DD
:10070000C4000020034A1368013B1360002B00D192
:1007100062B67047C400002070B5002A0CD043793F
:10072000124C9D002A515A00114DD3185A5D0823CE
:10073000002A03D0181C70BD0723FBE7041C04200B
:100740000E1C20568978FFF75DFEA12332882168B0
:10075000DB00CA50637931795A00D318EA18517016
:10076000F178917001225A550023E3E7C800002078
:10077000CC0000200122022103681A6043795A004C
:10078000D318014A99547047CC0000200122036815
:100790005A6043795900CB1801495A547047C046F2
:1007A000CC0000208023002210B504685B00E250DA
:1007B000D1220468FF3B9200A350002902D00168B7
:1007C000403A8B5010BDC046C12208B5354B92004F
:1007D000995880225202114203D0334908680028F8
:1007E00041D1C1222F4B920099588022920211428E
:1007F00003D02E490868002841D1C122294B92001C
:1008000099588022D202114203D029490868002851
:100810001DD1C122234B92009A58D20704D58022C1
:1008200052009958002936D1C1221E4B92009A5885
:10083000920704D5822252009958002900D108BDA0
:10084000002199501B4B05201B689847F7E7D220E1
:1008500080001A5040381A5000230B60154B0220BC
:100860001B689847D5E7D22080001A5040381A50AC
:1008700000230B600F4B00201B689847B1E7D22084
:1008800080001A5040381A5000230B60094B012099
:100890001B689847B1E700219950064B04201B685C
:1008A0009847C1E700B0004040B1004044B100406B
:1008B00048B10040C800002008B5064B1868002861
:1008C00003D10222044B1A7002E001F0CDF801209E
:1008D00008BDC046D000002010010020014B1B685D
:1008E000587E7047D000002008B500F009FE0028AF
:1008F00002D100F0F0FD01E0FFF77AFD08BDF8B588
:10090000171C051C0C1C0422072805D803220029EB
:100910002DD0202F04D90622174B00241A7028E06E
:1009200000F044FE09220228F6D8281C00F042FEFE
:100930000A220228F0D800F041FE08220128EBD953
:1009400000F0ECFD0122061C4378211C1343437088
:1009500007703A1C023002F0D9FEE8B2311C00F0F8
:10096000F1FD041E05D1054802F0B6FA0F22024B34
:100970001A70201CF8BDC04610010020DD000500E3
:1009800070B5041C0D1C161C00F014FE002803D1C9
:100990000B22154B1A7025E00322002D07D0201CD6
:1009A00000F0F6FD326803789A4204D206220E4B1C
:1009B00000201A7016E0201C00F0E0FD041E0AD092
:1009C0000278811C3260281C02F0A0FE201C00F07E
:1009D000AFFD012006E0054802F07EFA0F22201C40
:1009E000014B1A7070BDC0461001002005010500C2
:1009F00008B5072804D90422034B00201A7001E02F
:100A000000F0D4FD08BDC0461001002008B507283D
:100A100005D904220120034B40421A7001E000F086
:100A2000C9FD08BD1001002008B500F0C7FD062370
:100A3000181A08BD10B5072803D904220B4B1A70E9
:100A400004E0041CFFF7D4FF022801DD00200CE0C5
:100A5000201CFFF7DBFF0228F8DCFFF7E5FF062389
:100A6000181A053B83428041404210BD100100200E
:100A700008B50B4B1B685B7E002B04D00C22094B86
:100A80001A70002309E0072803D90421054A1170D0
:100A900003E0C0B200F096FD0123181C08BDC0465B
:100AA000D00000201001002008B5072804D9042236
:100AB000044B00201A7003E0C0B200F09DFD01203D
:100AC00008BDC0461001002010B501280AD000283A
:100AD00003D0022808D1002000E0012001F04EF8E8
:100AE000012005E00220F9E705220020014B1A70E1
:100AF00010BDC0461001002008B500F009FD00231C
:100B0000012809D00233002806D0013B022803D077
:100B1000024802F0E1F90223181C08BD700105002B
:100B200038B5124B1B685B7E002B04D00222104BA1
:100B30001A70002317E04A1E0F2A01D9072102E08C
:100B4000002803D103210A4A11700CE00C1C094D46
:100B5000011C10C5221C281C02F0D8FD281C211CD9
:100B600000F0BAFD0123181C38BDC046D00000209B
:100B700010010020600000200C4B10B51A680C68B2
:100B8000944201D3102C04D90722094B00201A707B
:100B90000AE0002803D10322054B1A7004E00A6022
:100BA000191D02F0B3FD012010BDC04660000020F9
:100BB00010010020014B18687047C04660000020FB
:100BC00008B5074B1B685B7E002B04D00222054B47
:100BD00000201A7002E000F019FD012008BDC04697
:100BE000D00000201001002008B500F01FFD08BD56
:100BF00008B5074B1B685B7E002B04D00222054B17
:100C000000201A7002E000F017FD012008BDC04668
:100C1000D00000201001002008B500F01BFD08BD29
:100C200008B50A4B1B685B7E002B04D00222084BE0
:100C30001A70002308E0072803D90421044A117020
:100C400002E000F00DFD0123181C08BDD0000020BB
:100C50001001002010B5072804D90422064B0020FB
:100C60001A7007E003220029F8D00C1C00F024FDC4
:100C70002070012010BDC0461001002008B5074BB0
:100C80001B685B7E002B04D00222054B00201A70EB
:100C900002E000F061FD012008BDC046D000002048
:100CA0001001002008B500F05DFD08BD08B50E4A32
:100CB000031C1268507E002804D002220B4B002037
:100CC0001A700FE0012B0AD0002B05D0022B05D0A3
:100CD0000E22064B1A7005E0022000E0012000F011
:100CE000D5FD012008BDC046D00000201001002025
:100CF00008B501F017F8031C0120002B03D0013BBD
:100D000058425841400008BD08B5144B1B685B7E33
:100D1000002B04D00222124B1A7000231BE006287D
:100D20000FD802F057FC12041406080A0C00002029
:100D30000EE0F8200CE0F4200AE0F02008E0EC20BF
:100D400006E00E21064A117005E0042000E0FC20B8
:100D500000F042FD0123181C08BDC046D000002051
:100D60001001002008B500F045FD0523F02811D042
:100D700006D8002304280DD00633EC280AD008E05A
:100D80000323F82806D0013BFC2803D00233F428C3
:100D900000D00123181C08BD08B5074B1B685B7EFB
:100DA000002B04D00222054B00201A7002E000F054
:100DB000DFFC012008BDC046D0000020100100204B
:100DC00008B500F0DBFC08BD08B5074B1B685B7E6F
:100DD000002B04D00222054B00201A7002E000F024
:100DE00095FC012008BDC046D00000201001002065
:100DF00008B500F091FC08BD08B5074B1B685B7E89
:100E0000002B04D00222054B00201A7002E000F0F3
:100E1000C9FC012008BDC046D00000201001002000
:100E200008B500F0C7FC08BD08B5074B1B685B7E22
:100E3000002B04D00222054B00201A7002E000F0C3
:100E4000A3FC012008BDC046D000002010010020F6
:100E500008B500F0A1FC08BD08B5074B1B685B7E18
:100E6000002B04D00222054B00201A7002E000F093
:100E7000A7FC012008BDC046D000002010010020C2
:100E800008B500F0A3FC08BD08B50B4B1B685B7EE2
:100E9000002B04D00222094B1A7000230AE000281C
:100EA00005D0012803D00E21044A117002E000F0A1
:100EB00051FF0123181C08BDD000002010010020A4
:100EC00008B500F04DFF01384342584108BD08B550
:100ED0000B4B1B685B7E002B04D00222094B1A705F
:100EE00000230AE0002805D0012803D00E21054A7E
:100EF000117002E000F046FF0123181C08BDC04637
:100F0000D000002010010020F8B51D4C0026071C61
:100F1000201C1C4D311C0C2208302E706660FFF71F
:100F200077F9194800F042FE2060B04203D1012356
:100F300000202B7023E0154B181D1968FFF7F0FDFA
:100F4000041C381CFFF7C0FD2040C4B2042000F090
:100F5000E9FB301CFFF798FF04400120FFF7D4FEA7
:100F600004400220FFF7A2FE0440301CFFF7AFFF51
:100F70000440012000F0DCFE002CD8D00120F8BD98
:100F8000D0000020100100200310000060000020AD
:100F900008B500F0FDFE01384342584108BD00226B
:100FA000014BDA607047C046D0000020014BD86882
:100FB0007047C046D00000200022044B1A729042B5
:100FC00002D0013218611A727047C046D00000206A
:100FD000014B18787047C046100100200022014BD9
:100FE0001A70704710010020014B58687047C046C6
:100FF000D00000200022014B5A607047D000002032
:101000007047F0B58BB00D1C0491111C090C0191B7
:10101000002108AC030C060A171C089103900592E6
:101020006160020E0791011C6846C172C07ADBB292
:10103000BFB2F6B26946052853D802F0CBFA0313C3
:1010400028423F3C22705BB28A885B42281CA28007
:101050006780E38000F06CFA301C08996268FFF743
:10106000C9F941E0214B1B685B7E002B02D120486F
:1010700001F032FF281C00F05BFA6B469B8867800A
:10108000A380301C08996268FFF7B8F92CE05BB2C6
:1010900007A95B420A704B80002A07D0002D02D1BD
:1010A000144801F019FF281C00F042FA301C07997F
:1010B000FFF79AF918E0FFF79BF915E0FFF7A0FF9B
:1010C00012E00A4BDA680132DA601A7A002A0BD091
:1010D0001A69002A02D1FFF707FC05E0013A1A61FC
:1010E00002E0054801F0F8FE0BB0F0BDD000002092
:1010F000B5030500C3030500E30305000F22024BFF
:101100001A70024B5860704710010020D000002078
:10111000044B01201A78022A02D05868431E9841D5
:101120007047C0461401002008B5FFF7F1FF044BDB
:10113000044A002801D0D26800E092681A6008BD15
:10114000E80000204C010020044A08B55368002B39
:1011500001D0013B5360FFF7E7FF08BD14010020F9
:1011600000231A1C10B5041C01211C412140072436
:10117000E41AA14001330A43D2B2082BF3D1101C68
:1011800010BD70B50024061C251C301CE040C0B208
:10119000FFF7E6FF18231B1B984008340543202C5B
:1011A000F3D1281C70BD38B50D1C01F065FE084C4C
:1011B00063699D4202D8074801F08EFE63690648C4
:1011C000E91A012202F04AF90023636138BDC046E2
:1011D000140100204D060900B92E000007B5A12317
:1011E000C0210F4A8900DB00D15001F085FD0028A5
:1011F00015D002280AD9032811D1002300930193A6
:10120000181C191C1A1C01F0D3FC03E00020011C5F
:1012100001F082FC042802D0024801F05DFE07BD07
:1012200000F00140E801090008B501F017FFA12313
:101230000E4ADB00D05001F05FFD012807D001F01D
:101240005BFD022802D00A4801F046FE002001F0B2
:1012500099FA02F087F9AA22064BD2009850064A62
:10126000D2685168054A995008BDC0460010004038
:101270001E06090000F00140E800002054050000AF
:1012800008B502F0DFF801280FD002F0BFF8074BD5
:101290001B7F002B03D180230122DB055A60002035
:1012A00001F0EAFD0022024B5A6008BD4C0100200B
:1012B0001401002008B502F0C5F8012822D101F080
:1012C000F5FD002802D0104801F006FE64210F4809
:1012D000002202F0C3F80E4B197F002902D002F061
:1012E00089F80FE001220B4B1A600B4B59608021EB
:1012F000C9050A60C046C046C046C0465A68002AB2
:10130000FCD0ECE708BDC0462C060900B92E000051
:101310004C01002014050040FC00004010B501F015
:1013200028FD00281BD000220D4B0E4C9A81DA813B
:1013300001F07AFB0C4BE05001F076FB0123834077
:10134000181CA623DB00E05001F074FB074C206062
:1013500001F076FB064B6060E360FFF765FF10BDB0
:1013600014010020001000402C0500003001002076
:10137000B913000030B50E4D85B06B7E002B15D033
:101380000024FFF77DFF01F0B5F8052301A80370E5
:10139000AC706C7644600481448144708470C47085
:1013A00001F082FA034B1C70FFF718FF05B030BD47
:1013B00014010020480100208022F0B53C4BD200EF
:1013C0009A5887B0012A04D000263A4A9B58B34263
:1013D00006D100262022384B5B681B789A42764162
:1013E000364C6369002B05D102F032F8002801D198
:1013F0000123636101F080FC012802D0304801F034
:101400006BFD304DEB681B7D002B02D02E4801F0A8
:1014100063FD01F06FF8002E47D00120011C01F0A0
:101420007BFB042836D802F0D5F80332183232009C
:1014300001F000FBE389A689071C019301F0F4FA8F
:10144000EB686D460022997DAD8803AB1A70049756
:101450001E815D815870997014E001F0EBFAE38908
:10146000A689071C019301F0DFFA0021EB689A7D41
:1014700003AB197069469A700122898804971E810E
:1014800059815870DA70181C01F00EFA02E00F480A
:1014900001F022FD01F008FE0D4B20615B696360E5
:1014A000FFF742FE002001F005FE07B0F0BDC04688
:1014B000001000403405000030010020140100201D
:1014C000A8060900E8000020A9060900C8060900CE
:1014D0004C010020704708B5012282F31088074BA9
:1014E000597E002905D09978002902D19A70FFF71A
:1014F000E1FE002383F3108808BDC04614010020DC
:101500000120024B5B7E58407047C046140100200A
:10151000014B18787047C0461401002008B501231C
:1015200083F3108801F086FC002383F3108808BD44
:1015300008B5012383F3108801F080FC002383F3B6
:10154000108808BD10B5012383F3108801F0DAFB81
:10155000041E0CD0084B9A78002A04D15B7E002B25
:1015600001D0FFF7A7FE002383F3108801E080F38A
:101570001088201C10BDC0461401002008B50123AE
:1015800083F3108801F0E6FB002383F3108808BD85
:1015900008B501F0DAFB08BD08B5012383F3108814
:1015A00001F0C3FB002383F3108808BD08B501F0E8
:1015B000C8FB08BD08B501F0D7FB08BD08B501F0B0
:1015C00041FC08BD10B50123041C83F31088084BAF
:1015D0001A78002A05D05B7E002B02D0054801F066
:1015E0007BFC201C01F0A5FB002383F3108810BDB9
:1015F00014010020FB02090008B5012383F31088C1
:1016000001F0ADFB002383F3108808BD08B5044B3F
:101610001862FFF7B6FD034B034AD05008BDC04621
:101620004C0100201C05000000100040014B186A0E
:101630007047C0464C01002008B5044B5862FFF7C4
:10164000A0FDA423024ADB00D05008BD4C010020BD
:1016500000100040014B586A7047C0464C01002002
:1016600070B507281CD8104B03251B182833197098
:10167000FF230540ED00AB400C4CDB43032801D8B1
:101680000B4E01E0A526F600A259081C1340A351F9
:10169000FFF766FDA840051CA3591D43A55102E0B4
:1016A000044801F019FC70BD4C01002000100040FE
:1016B000240500003903090010B5041E072C02D9C7
:1016C000034801F009FC034B1C192834207810BD95
:1016D000410309004C01002038B5051C0C1E02D145
:1016E000074801F0F9FB002D02D1064801F0F4FB98
:1016F000054B00209D605C6001F0C4FC38BDC04615
:101700004803090049030900E8000020014B586123
:101710007047C0464C010020014B58697047C046D5
:101720004C010020A322064B064910B5D200587781
:101730008C58054B000423401843885010BDC04608
:101740004C01002000100040FFFFF8FF014B587FC4
:101750007047C0464C010020014B18617047C046DD
:101760004C010020014B18697047C0464C01002015
:10177000014B58607047C0464C010020014B58682F
:101780007047C0464C01002008B5024BD860FFF7F7
:10179000CBFC08BD4C010020014BD8687047C04607
:1017A0004C01002008B5024B9860FFF7BDFC08BD56
:1017B0004C010020014B98687047C0464C01002046
:1017C000014B58837047C0464C010020014B588B99
:1017D0007047C0464C010020034B044A3033187058
:1017E000034BD0507047C0464C0100200010004011
:1017F0000C050000014B3033187870474C01002075
:1018000010B5FF24164B174A31331870164B9958F0
:10181000A143995003281FD8995801F0DBFE1B0201
:101820000B13012001439950FF21104A99500821C0
:10183000FF310EE00220014399500D490B4A9950A7
:101840000C4906E00320014399500B49074A99507F
:101850000021043A995002E0084801F03DFB10BD18
:101860004C01002034050000001000403C05000041
:10187000FFFF000021100100FFFFFF00C20309006D
:10188000014B3133187870474C0100201F4B323325
:101890001870012821D0002810D0022834D1A223AA
:1018A0001B4ADB00D0501B4A1B4B1A601B4A1C4BC7
:1018B0001A601C4A1C4B1A601C4A20E0A223144ADE
:1018C000DB00D050134A144B1A60144A144B1A60B0
:1018D000174A154B1A60174A11E0A2230C4ADB0085
:1018E000D0500C4A0C4B1A600C4A0D4B1A60124A2D
:1018F0000D4B1A60114A124B1A60124A02E0104B4B
:101900001A60114A114B1A607047C0464C01002002
:101910000010004000500078241700404E00005492
:101920002817004008800C602C1700408864720063
:1019300003800C602264720002800C6011646600F7
:1019400030170040DEC08F823E420F8234170040C5
:10195000F8B50026C0270122324D334BBF00EE50B0
:101960004C3BEF50314C324BE650E250314B324A57
:10197000E1580A400F21E250E2588A4309390A43EC
:10198000E250E1582D4A0A40C02189020A43E25040
:101990000433E1582A4A0A408021E250E2584904BF
:1019A0000A43FF21E250E2588A43DF390A43E250FA
:1019B000E158244A0A40E250C0230221224A5B0037
:1019C000D15001F0CBFD214B214AE850043BEA50B5
:1019D000204B2148EF5000F0C5FD204B204DD86032
:1019E000687FFFF79FFE286AFFF710FE686AFFF71F
:1019F00023FE331C2833301CE95C0136FFF730FE30
:101A0000082EF6D12B1C30331A78164BE2502B1CC3
:101A1000313318783235FFF7F3FE2878FFF736FFB9
:101A2000F8BDC04600F00140540500000010004021
:101A3000FC0F000014050000FFFEFFFFFFFFF0FF9A
:101A4000FFFFFFFDFF00FFFF00E100E05C0500007D
:101A5000041100400405000030010020E8000020CF
:101A60004C0100200C05000038B5124B5A7E1D1C9D
:101A7000002A1DD1FFF76CFF0F4B9A681C1C002A2F
:101A800002D10E4801F028FA6368002B02D10C48FD
:101A900001F022FA01F0FEF9002802D0094801F015
:101AA0001BFA002001F0E8F901236B76FFF702FC36
:101AB00038BDC04614010020E80000205E02090085
:101AC0005F0209006602090070B5274D86B02B78C9
:101AD0006A7800209A4244D0834201D1FFF738FF50
:101AE0006B78002B01D1FFF779FB00241F4B204AB4
:101AF000D45000F0FFFC1F4E2B78346074603461CA
:101B0000B460F460012B08D101F0F6F8A04217D0C0
:101B1000201C211C01F000F812E0022B10D100F073
:101B2000E9FC154B34611C7001F0E6F8032807D17D
:101B300000940194201C211C221C231C01F038F865
:101B4000FFF7F2FA6B7803A82B70042303700023CD
:101B500043600381438143708370C37000F0A4FE2F
:101B6000012006B070BDC0461401002054050000DD
:101B700000F00140300100204801002008B5012399
:101B800083F31088084B1A78824208D058705B7E25
:101B9000002B02D1FFF798FF01E0FFF78BFB00233A
:101BA00083F3108808BDC04614010020F7B5012753
:101BB000019087F3108803230026514C514D237068
:101BC000514BAE601E605E609E60DE601E611E75E1
:101BD0006E60A6706660A660A681E6812661666179
:101BE00026766676677001F0C9FB019800F042FE28
:101BF00000F0DEFE301C01F037F9281C01F070F90E
:101C0000C222FF21414B92009B5840488B433F49E1
:101C10008B50C0213D4B89005A583D4B1A404250D1
:101C2000C522920081580B408021C9010B4383508B
:101C3000381CFFF7A3FFFF23364D03202B61364BE3
:101C4000291C2B62354B29316B622B1C28331F70EA
:101C500002230B70291C2A310870291C04222B3105
:101C60000A706A772A1C05212C3211702A1CC919A6
:101C70002D3211702A1CC9192E3211702A1CC91953
:101C80002F3211702A1C303216702A1C3132137018
:101C90002A1C323217701E226A61962292006A60F4
:101CA000EB60FFF741FA0F23AB60FFF73DFA301C02
:101CB0006E832E772F766F7601F0C8F869232B603C
:101CC0006378124EBB4202D0154801F005F9002599
:101CD0002770A5706560A560A581E58125616561B6
:101CE00025766576FFF734FEC02380225B00520024
:101CF000F25080229203F25085F31088201CFEBD22
:101D000014010020E80000203001002000E100E084
:101D1000FF00FFFF4C01002004070A0D05080B0E11
:101D20003C020900014B3233187870474C01002007
:101D3000054B10B5DB68041C002B02D1034801F0F1
:101D4000CBF8034B1C7510BDE8000020F60309001A
:101D500030010020014B18767047C0464C0100202E
:101D6000014B187E7047C0464C010020014B58764D
:101D70007047C0464C010020014B587E7047C0465A
:101D80004C010020014B18777047C0464C010020E1
:101D9000014B187F7047C0464C01002008B501F088
:101DA00055F808BD08B50B4BDB685B7D002B06D0F2
:101DB000012000F03FFB084A938901339381002002
:101DC000064B074AD050074A0ACA591AFFF7EBF9DF
:101DD00008BDC046E80000201401002054050000A2
:101DE00000F001404C010020084B10B51A781C1C73
:101DF000012A02D0064801F06FF802230022237066
:101E0000044B1A61044ADA6010BDC0464801002044
:101E100092050900300100200D21000010B500F0EE
:101E200069FB00230122184C2361184B1A70184BD0
:101E3000184A1969A623DB00D15000F05DFF002885
:101E40000AD100F063FD01280DD900F0FFFD6060AC
:101E5000002808D1104804E000F04EFF032802D00B
:101E60000E4801F039F8022000F08CFC002000F050
:101E7000E1FA00F041FF032802D0094801F02CF8F4
:101E8000FFF7B2FF10BDC04630010020480100201E
:101E90004C010020001000407B050900800509006E
:101EA0008805090070B5A1240B4DE4002E5901F0FE
:101EB000D5F886420AD001F0D1F82851FFF7AEFFDD
:101EC000064B00205968FFF76EF970BD044B1B7874
:101ED000002BF3D0F4E7C046001000404C01002076
:101EE00048010020F0B5804C89B06369002B00D018
:101EF000D1E001F0ADFA002800D0CCE02378012B2E
:101F000002D100F0EDFA12E0022B08D000F0F8FF49
:101F1000FFF71AF9A678002E00D0A5E00BE0012209
:101F2000724B1B78033BDBB29A424041C0B200289F
:101F300000D0C2E0EAE7FFF7C7FD6D4D071E00D0F5
:101F40008DE02678012E06D0002E63D0022E66D1B9
:101F5000FFF7A8FF66E000F0CDFA00F0CDFE002804
:101F60001DD100F0D3FC012851D9FFF7D1F8061E8E
:101F70000CD001F0B1F8002849D12B7E002B0BD1F9
:101F800001F092F82369984241D105E0206901F0FF
:101F900079F8301C01F08EF8FFF7C0F937E06B8B51
:101FA000002B20D0A2899A421DD3311C381C00F08E
:101FB000B3FD00F03FFD0190A3890293E3890393F1
:101FC00000F032FD019A05AB06926A4612895870FC
:101FD0001A816A469289181C1E705A819F70DF70A0
:101FE00000F062FC13E001F033FA002802D041480F
:101FF00000F072FFA123404ADB00D65801F02EF812
:10200000864202D0E3890133E381FFF70DF9012015
:10201000296801E0301C6968FFF7C5F802E037481D
:1020200000F05AFF6B7E012B20D1FFF771F80028DA
:102030001CD12378012B07D0002B0DD0022B15D0FB
:102040002F4800F049FF11E000F056FE00280DD1A6
:1020500000F0E4FC002809D1FFF712F906E0301C7B
:102060006968FFF7A0F801E0FFF784F900F04EFC83
:1020700001280CD9032305A80370002343600381C2
:10208000438143708370C37000F00EFC2AE01D484A
:1020900000F022FF26E0FFF757F8A578002D1DD1AC
:1020A0002378022B12D1114B1B78033B012B04D94F
:1020B00000F026FFFFF7F6FE14E00D4B12485968BA
:1020C00001224908616101F0C9F90BE000F018FF35
:1020D000074B281C5968FFF766F803E000F010FF73
:1020E000FFF748F909B0F0BD1401002048010020B5
:1020F0004C0100200A0509000010004058040900A6
:10210000720409008C040900B92E0000802370B508
:10211000454ADB00D35886B0444C012B04D0444BD5
:10212000D1580023994205D16368202019780023F3
:1021300088425B4103213F4D2970002121608B4281
:1021400054D081230120DB00D658D1583A4BD150CE
:102150003A4B311CD25802AB00930194031C00F09F
:1021600027FD032840D801F035FA1D021F4D029BC0
:10217000002B02D0324800F0AFFE301C00F0F4FD1E
:10218000002802D12F4800F0A7FE2F4B03A8DB68E0
:102190009A7D0223037000234670436003814381CC
:1021A00082701DE029482BE0029B002B02D12848B9
:1021B00000F092FE301C00F0D7FD002802D1254827
:1021C00000F08AFE204B03A8DB689A7D022303708F
:1021D000029B467043600023827003814381013378
:1021E000C37000F061FB0DE01B4809E00093019310
:1021F000181C191C1A1C00F0DBFC042802D017481C
:1022000000F06AFE2668002E06D100F073F96675AC
:102210002661FFF703FE05E001236375104B236180
:1022200004232B7006B070BD001000403001002068
:1022300034050000480100202C0500000C040000BB
:10224000B8050900B9050900E8000020BD0509002E
:10225000C0050900C1050900C8050900CF0509002E
:1022600065220000052208B5024B1A70FFF7D6FD63
:1022700008BDC046480100200138C046C046C046DF
:10228000C046C046C046C046C046C046C046C0461E
:10229000C046F1D170478023002170B5C224154A91
:1022A0009B00D150144BA4001E78144D032E06D170
:1022B00009391151C1210824890054500BE001262D
:1022C00076421651C0220E4C52000336A6507E3A7A
:1022D000FF3A29615A7000226A606A61AA605A60F6
:1022E0001A75904205D0074B1B681B69934200D0BA
:1022F000984770BD0010004080010020FC10004095
:1023000000E100E0F8000020F8B53D4B1A69012A11
:1023100054D103321A709A69032101329A618022E2
:102320000220384D9200A9503749803A8850002148
:10233000364A374E1161516051619160C1210630BA
:10234000890068503168141C097D002916D0A92223
:10235000D200AA589A75A0222E4BD2009A581F1C60
:10236000530502D42C4800F0B7FD0023236201334B
:10237000AB618022A123D200DB00FA506368002BFE
:1023800002D0264800F0A8FD2369002B02D0244883
:1023900000F0A2FD234B5B689B0702D5224800F0AA
:1023A0009BFD3368DB68002B00D0984733685A7D6B
:1023B000002A23D01A681D4BEA501FE0022A1AD1C6
:1023C0000022124901240A614A614A608A60802120
:1023D0000C48890042500931FF3164421A70445060
:1023E00003215A6059701A75094B1B681B69934287
:1023F00004D0984702E00E4800F06EFDF8BDC046DC
:10240000800100200010004000E100E0FC100040CE
:10241000F800002000F00140AD020A00B6020A00F8
:10242000B7020A00FCE100E0B8020A00040500005F
:10243000E7020A0070B51F4C061C637D6578002B0F
:1024400002D11D4800F048FD237D002B02D01B481F
:1024500000F042FD0123002223756275022D0ED883
:10246000964203D1164A29018A5813606B1E012B2C
:1024700008D8134A2B01D3189B7A237002E0114825
:1024800000F02AFD104B1B681B7D002B11D0022D84
:102490000FD10E4B0E4A1C1CD258530502D40D48C6
:1024A00000F01AFD0C4B1B59002B02D10B4800F019
:1024B00013FD70BD8001002021010A0022010A00E5
:1024C000503700003A010A00F8000020040500001F
:1024D00000F0014040010A000010004041010A00E4
:1024E000034B9868013843425841C0B27047C04618
:1024F000FC10004002200121C222F8B5144B4942D1
:10250000D867144B92009950134D893AFF3A8021B5
:10251000A8500022114F89005A50114C7A610132A3
:102520001A619A612378934201D1043003E0023B9F
:10253000012B00D9101C0026FFF79EFE7E61301C87
:102540002670FFF7A8FE022366752B60F8BDC04613
:1025500004E100E00010004000E100E0FC10004059
:102560008001002038B502250C4B0D4C1860231D4E
:10257000DD670C490C4B0D4A99500D49043A9950AE
:10258000FFF7B8FF002303220A480370427043603C
:102590000361037543758375256038BDF80000201D
:1025A00000E100E01410004000F00140640500006C
:1025B000041100408001002070B55C4C23696678EE
:1025C00001332361637D002B02D0594800F084FC65
:1025D0002378032B48D1574D2B69002B44D0012E73
:1025E00035D12369032B02D0534800F075FCA36951
:1025F00080200133A3610221002301264F4A80007D
:102600002170135009307642FF30165089384C4EF5
:10261000FF38315001312B616B606B61AB606170D1
:102620004849636009682375087D98420DD0A92048
:10263000C0001058A0753F480362013393618020A9
:10264000A123414AC000DB00D050CB6865E0022ED8
:1026500008D12369012B02D03C4800F03DFCFFF774
:1026600053FE61E03A485DE0032E5AD0012E3AD184
:102670002369012B17D100212E4A304B5160916004
:10268000C222013992009950043A9E502D4A126894
:10269000117D304A002903D080202B49C00088508A
:1026A000E168995040E0022B3ED1002321490220ED
:1026B0000B614B614B608021204A890053500931E6
:1026C0004042FF3150500A300439505003226360B9
:1026D00023751C4B22701A681C1C1269002A00D03A
:1026E0009047236818E0022EB9D0002563781A4A73
:1026F0001B01D118097BA94204D00E490D69691E3E
:102700008D41EDB2D3189B7A01202370FFF7C3FDF2
:10271000002D09D00B4B1B689B68002B04D09847F9
:1027200002E00E4800F0D8FB70BDC04680010020DA
:1027300090010A00FC1000409F010A0000100040B8
:1027400000E100E0F800002000F00140A4010A00D0
:10275000A9010A000405000050370000D6010A0054
:1027600008B5022805D8054B187843425841C0B235
:1027700003E0034800F0B0FB002008BD800100200A
:10278000F9020A00F0B52F4C85B0237D061C002B02
:1027900002D02D4800F0A0FB301CFFF7E1FF00281D
:1027A00002D12A4800F098FB0121C2220023022016
:1027B000274D494292006375A9502649893AFF3A4C
:1027C0008850254837010268667011685268236195
:1027D000A361224B0192E260FA58A160626003900B
:1027E0000293022E1CD88020DB191A7A80002A500E
:1027F000D87A1B4B002805D1E950EB58002B09D1A2
:10280000184805E0019AEA50EB58002B02D116480F
:1028100000F062FB029BDF19C1237A7A9B00EA5029
:10282000039B1B681B7D002B08D0022E06D10023C2
:102830008021A3750D4A0A4BC900D150012363754D
:1028400005B0F0BD80010020DB000A00DD000A00B9
:102850000010004000E100E0F800002050370000C8
:102860000405000000010A0005010A0000F0014013
:102870007047C04610B5041E02D1084800F02CFB7A
:102880000022074B1C60191DDA670833CA67DA6734
:102890008022044B92031A6010BDC04629000B0031
:1028A000A401002000E100E038B5144C051C2368A9
:1028B000002B02D1124800F00FFB231C0833DB6F02
:1028C000092B02D90F4800F007FB0C23E26F53439A
:1028D000E318043307CD07C3221C0832D36F01333A
:1028E000D367E36F0133E367E36F092B01D900235B
:1028F000E3678022044B92035A6038BDA401002094
:1029000034000B0035000B00FCE100E0034B083302
:10291000D86F0A23181AC0B27047C046A40100201D
:10292000F0B585B0012383F31088144B1D1C0835C6
:10293000EA6F9C461E1C002A1BD00C22191DCB6F6F
:1029400001AC5343221CF3180433C1CBC1C2EB6F5B
:10295000013BEB67CB6F0133CB67CA6F0023092ABA
:1029600000D9CB6783F31088634607CC1B68984770
:10297000D8E782F3108805B0F0BDC046A40100205E
:1029800038B5094C051CE36F002B02D1074800F055
:10299000A3FA291CE06F083100F03EFC002801D0AA
:1029A0000023E36738BDC0462C0200206F020C00F4
:1029B00038B500F0BDFB00211248134A00238C18E3
:1029C000251C88348035036003622B7023700F4C04
:1029D00004300C19013123700829EED1111C9031FB
:1029E0000B70111C91310B70111C58311370536016
:1029F0009360D36013615361D3670B7092320133DC
:102A0000137038BD440200202C020020C0020020B8
:102A1000014B185C7047C046C0020020014B903348
:102A2000187870472C020020014B58687047C04648
:102A30002C020020014B98687047C0462C020020F1
:102A4000014BD8687047C0462C02002010B5104CCE
:102A50002378002B02D00F4800F03EFAE36F002BE2
:102A600002D100F08DFBE067E06F00280FD0FF235C
:102A70000622037043781343021C43702232831CE6
:102A8000FF21197001339342FAD10323237010BD43
:102A90002C0200203B010C0038B5124C2378002B8F
:102AA0001ED1231C90331B78002B19D10825606997
:102AB00000F02EFC002805D0231C012290331A7050
:102AC0006369236163690133082B00D100236361CB
:102AD000231C90331B78002B02D1013D002DE6D141
:102AE00038BDC0462C02002038B5094C051C231CFB
:102AF00090331B78002B04D02369834201D1FFF768
:102B0000CBFF00236419034A80345355237038BD2A
:102B10002C020020C0020020F8B51F4C071C2378AF
:102B20000E1C013B012B02D91C4800F0D5F90425ED
:102B3000002F19D02378012B02D0194800F0CCF9CE
:102B4000E368002B02D1174800F0C6F90025E368BE
:102B50001B78AB4208D06068FFF712FF02350028EF
:102B600002D1114800F0B8F9002E0ED06768381C69
:102B700000F088FB061E02D0381CFFF7B5FFA368E3
:102B80009E4202D0094800F0A7F900232370FFF706
:102B900083FF281CF8BDC0462C020020FC000C005E
:102BA00002010C0003010C000E010C001E010C00C0
:102BB000F0B54A4C85B00393E36F071C0E1C0192DD
:102BC000002B02D1464800F087F92378032B02D06E
:102BD000444800F081F90125E36F5B782B4202D174
:102BE0009234227855400424002F4CD0019A5B0780
:102BF00017029B0F1B063F0A1F43331C374A0E3335
:102C00009B00D2580023341C0A9908340B600B999E
:102C10000B60974204D101221540019502930BE00D
:102C2000301CFFF7ADFE0290002D00D0051C0122E4
:102C300015400195002801D103240CE0A31D27496C
:102C40009B005F50039B141C002B04D0264D141CCA
:102C5000AB5D002B1ED1019B002B0ED0301C00F071
:102C60003BFB0B9B1860002803D1204B0B9A136091
:102C700006E001221C4B9A5502E00B9B019A1A6058
:102C8000029B002B21D1154DE86F00F097FA00232D
:102C9000EB671AE0301C00F03BFB002802D114481F
:102CA00000F01AF9301C00F0EDFA041E02D0301CBE
:102CB000FFF71AFF0A9B1C60002C02D10D4800F0A0
:102CC0000BF900230224AB55C5E70022034B1A7011
:102CD000FFF7E2FE201C05B0F0BDC0462C0200202C
:102CE0005B010C005C010C00C0020020840200208B
:102CF00091010C0096010C00014B18787047C046FA
:102D00002C02002038B5041C0D1C00F013FB002819
:102D100001D1002008E0281C211C00F07DFA0028C9
:102D2000F7D0FFF7B9FE012038BD08B500F0D4FA9E
:102D300008BD10B5041CFFF7D7FE201C00F000FBF7
:102D400010BD08B500F0E4FA08BD08B5083000F081
:102D5000C3FA08BD08B5083000F094FA08BD08B5FC
:102D6000083000F0EDFA08BD08B5083000F0D0FAE0
:102D700008BD10B52B4C2378002B02D02A4800F058
:102D8000ABF8231C90331B78002B28D02369181C28
:102D9000636000F0A1FAA060002802D1234800F08F
:102DA0009BF8A3685A780123134004D1221C923265
:102DB0001278002A10D16068FFF7D6FF02280ED8DB
:102DC000E36F002B02D100F0DBF9E067E36FE36013
:102DD000002B04D0012301E0E360022323700020D4
:102DE000237883421CD0A368834202D1104800F0AC
:102DF00073F823690321636006339B00E318DA78D4
:102E0000A0680132D2B2DA70131C0B405A0043782A
:102E100049188B43134343700023012090342370DF
:102E200010BDC0462C020020C3000C00C9000C00DD
:102E3000E7000C0008B500F0A3F908BD08B500F0E4
:102E4000BDF908BD08B500F075FA08BD014B923315
:102E5000187070472C020020014B9233187870478D
:102E60002C0200207047C046024B987058701870B2
:102E70007047C046C802002010B5041E012C02D9BC
:102E8000024800F029F8024B5C7010BD2A000D00CA
:102E9000C8020020014B18787047C046C8020020C5
:102EA000014B98787047C046C8020020014B587803
:102EB0007047C046C802002008B5054A13789370D1
:102EC00053781370034A9B009B58984708BDC0462F
:102ED000C80200207400002008B5FEF70FF908BDF5
:102EE00010B5041E02D10448FFF7F6FF0022034B81
:102EF0001C605A609A6010BD2A000100FC0000208E
:102F0000084B18689A68016801329A608A4208D3AF
:102F100000215A684068013299605A60824200D3A9
:102F200059607047FC000020F8B500282BD0164CE3
:102F3000A36801280FD1216801330A68A360934276
:102F400021D30022636849680133A26063608B4229
:102F500019D3626017E02668C7183568A760381C67
:102F6000291C00F041FB6368C0186060381CA8424F
:102F700001D3401BFBE763687268A060934201D3F2
:102F80009B1AFBE76360F8BDFC000020024A13684F
:102F900090681B68181A7047FC00002070B50D4D32
:102FA000041E2B685B689C4202D30B48FFF794FF1A
:102FB0006E680020B4420BD002D82B685B68E4181E
:102FC000F643FFF7E3FF2B6834191B685C432018B6
:102FD00070BDC046FC0000206800010070B5041CF4
:102FE0000E1C884202D30B48FFF776FF0A4D2B6870
:102FF0001B689E4202D90948FFF76EFFAA68A01A13
:10300000A24206D30020B24203D32B681B68981A51
:10301000001970BD7D000100FC0000207E00010051
:1030200038B5041C101C0D1CFFF7B8FF002801D098
:1030300004190FE0201C291CFFF7D0FF041CFFF728
:10304000A5FF844206D3044B1B685A681B68013AEB
:103050005343E418201C38BDFC000020074B10B57A
:103060001A68596852681C1C914202D30448FFF741
:1030700033FF23689A686368D05C10BDFC000020B1
:10308000B200010038B5064B051C1A681C1C5268BA
:10309000904202D30348FFF71FFF656038BDC0466A
:1030A000FC000020B9000100014B58687047C04681
:1030B000FC00002038B5064B051C1A681C1C126861
:1030C000904202D30348FFF707FFA56038BDC04612
:1030D000FC000020C5000100014B98687047C04605
:1030E000FC0000200E4B10B51A68002393420BD24F
:1030F0000C499C006158884203D10B48FFF7ECFE55
:103100000AE00133DBB2F1E70023084A9A18904243
:1031100004D02233CC2BF8D1002000E0012010BDD8
:10312000CC020020D0020020F6000300D8030020CB
:10313000002210B50321002351430D4801324418E9
:103140006370A3700B54102AF4D10A490A1C0A4C6C
:10315000223A98002250DE20107001328A42FAD1C1
:1031600022320133111C062BF0D1044A136010BD2A
:10317000E8020020FA030020D0020020CC02002048
:103180000A4A38B513681C1E0ED0013B0849980046
:103190004458084D13604550201CFFF7A3FF00283A
:1031A00002D10548FFF798FE201C38BDCC02002054
:1031B000D0020020ADDEADDE7D00030070B5104C06
:1031C000051C2368052B02D90E48FFF785FE281C35
:1031D000FFF788FF002802D10B48FFF77DFE236828
:1031E0000A4A9B0099580A4B161C994202D009487A
:1031F000FFF772FE23689A000133B550236070BD5B
:10320000CC0200208500030086000300D0020020CD
:10321000ADDEADDE8800030070B5051C0C1E0F2C62
:1032200002D91448FFF758FE281CFFF75BFF00285F
:1032300002D11148FFF750FE032161430F4B0020DC
:10324000CA5C022A14D85A18567889190C4E89007B
:103250008D5151780131C9B251705178022900D98C
:1032600050700322012054431A5D0132D2B21A5524
:1032700070BDC0468F00030090000300E8020020EC
:103280001803002010B5041E0F2C02D90F48FFF7B9
:1032900023FE032161430E4BCA5CD2B2101E14D030
:1032A0005A18907809180B4889000858917801310C
:1032B000C9B291709178022901D90021917003223D
:1032C00054431A5D013AD2B21A5510BDA60003004C
:1032D000E80200201803002010B5041E0F2C02D9AC
:1032E0000848FFF7F9FD0320021C6243064BD15C3E
:1032F000C9B2081E05D09B189B78D018034B8000DC
:10330000C05810BDB7000300E802002018030020D9
:1033100010B5041E0F2C02D90448FFF7DDFD032071
:103320006043034BC05CC0B210BDC046C800030080
:10333000E8020020014B18687047C046CC0200200C
:1033400038B5051E0F2D0CD90948FFF7C5FD08E05B
:10335000084B9C4202D10848FFF7BEFD201CFFF736
:103360002DFF281CFFF78EFF041EF1D138BDC0468B
:10337000D7000300ADDEADDEDB000300A12101229A
:103380000020154BC90010B55A60DA6058505A64D5
:10339000124A1C1C9A58824202D01148FFF79CFD29
:1033A0000122C22352429B00E25000230D4A042115
:1033B0005364A2220120D200A1500B4A0B49136092
:1033C0001371537108708022C021094B52004900CB
:1033D0005A501A6010BDC0460080004044050000ED
:1033E00035000400FC80004008010020A4040020F7
:1033F00000E100E00122034B1A600022024B1A7028
:103400007047C04600800040A4040020012330B56E
:10341000C02080250021074A074C5360D360074A2B
:103420006D0040001160117125505171044A1370F4
:1034300030BDC0460080004000E100E008010020EF
:10344000A4040020014B18787047C046A404002053
:10345000014B18797047C04608010020F7B5C22318
:1034600000928022324C334E9B0052020191E25076
:103470007379051C002B02D02F48FFF72DFD002D7E
:1034800002D12E48FFF728FD3368002B02D02C48CC
:10349000FFF722FD009B35602A4F012B0DD0002B3A
:1034A00003D0022B0DD1A92308E00123264A63642F
:1034B000A5582364009B7B6407E0A823DB00E55844
:1034C00003E02248FFF708FD0025A8200121002283
:1034D000019BC000EB189BB271717A642350235892
:1034E0000093194B6164E6587B6C171C934202D021
:1034F0001748FFF7F1FC009BAB4205D3AE4201D366
:103500009E420ED313480AE03B1C009A96427B4130
:10351000AE427F41DBB2FFB2BB4202D00E48FFF7A2
:10352000DBFC8022C12352029B00E250F7BDC04663
:1035300000800040080100207300040075000400B2
:1035400076000400FC80004044050000890004006F
:103550009B000400B0000400C9000400004870474C
:103560004880004000487047408100408022C223CC
:1035700070B50026114D9B005202EA50104C114BC1
:103580005E642368B34202D10F48FFF7A5FC012314
:103590000E4A2068667126606B64A958043AAA58DE
:1035A0000B4D1432A94203D8C0252D02AA4202D8DD
:1035B000002391425B412371804770BD0080004031
:1035C00008010020FC800040EC00040044050000DD
:1035D000FF3F000002B4714649084900095C4900F8
:1035E0008E4402BC7047C046002243088B4274D30D
:1035F00003098B425FD3030A8B4244D3030B8B42F4
:1036000028D3030C8B420DD3FF22090212BA030CFC
:103610008B4202D31212090265D0030B8B4219D3DD
:1036200000E0090AC30B8B4201D3CB03C01A5241FD
:10363000830B8B4201D38B03C01A5241430B8B4245
:1036400001D34B03C01A5241030B8B4201D30B032E
:10365000C01A5241C30A8B4201D3CB02C01A524155
:10366000830A8B4201D38B02C01A5241430A8B4218
:1036700001D34B02C01A5241030A8B4201D30B0201
:10368000C01A5241CDD2C3098B4201D3CB01C01A1B
:10369000524183098B4201D38B01C01A5241430925
:1036A0008B4201D34B01C01A524103098B4201D313
:1036B0000B01C01A5241C3088B4201D3CB00C01A80
:1036C000524183088B4201D38B00C01A52414308F8
:1036D0008B4201D34B00C01A5241411A00D201461D
:1036E000524110467047FFE701B5002000F00CF88A
:1036F00002BDC0460029F7D003B5FFF775FF0EBC29
:103700004243891A1847C0467047C046002310B587
:10371000934203D0CC5CC4540133F9E710BD0000E0
:10372000F8B5C046F8BC08BC9E467047F8B5C04620
:10373000F8BC08BC9E467047430000000000002013
:103740001F0003020000000000B000400B00030057
:1037500000100040101100400310000001000000A4
:1037600000100040000000000B02040000000000F8
:1037700004100040000000000708030100000000E2
:043780000000000045
:083784009CC9FF7F0100000059
:10378C00000000000000000000000000000000002D
:10379C00000000000000000000000000000000001D
:1037AC00383700000000000000000000000000009E
:1037BC0000000000000000000000000000000000FD
:1037CC0000000000000000000000000000000000ED
:1037DC0000000000000000000000000000000000DD
:1037EC000500000004192A3F4D00000000000000F5
:1037FC0000000000E51E0000A51D0000E90000000F
:08380C00C100000000000000F3
:040000030000048570
:00000001FF
